{
  "_format": "hh-sol-artifact-1",
  "contractName": "FavouriteNumber",
  "sourceName": "contracts/FavouriteNumber.sol",
  "abi": [
    {
      "inputs": [
        {
          "internalType": "uint256",
          "name": "_number",
          "type": "uint256"
        }
      ],
      "stateMutability": "nonpayable",
      "type": "constructor"
    },
    {
      "inputs": [],
      "name": "myFavouriteNumber",
      "outputs": [
        {
          "internalType": "uint256",
          "name": "",
          "type": "uint256"
        }
      ],
      "stateMutability": "view",
      "type": "function"
    },
    {
      "inputs": [
        {
          "internalType": "uint256",
          "name": "_number",
          "type": "uint256"
        }
      ],
      "name": "setMyFavouriteNumber",
      "outputs": [],
      "stateMutability": "nonpayable",
      "type": "function"
    }
  ],
  "bytecode": "0x608060405234801561001057600080fd5b5060405161042238038061042283398181016040528101906100329190610054565b806000819055505061009e565b60008151905061004e81610087565b92915050565b60006020828403121561006657600080fd5b60006100748482850161003f565b91505092915050565b6000819050919050565b6100908161007d565b811461009b57600080fd5b50565b610375806100ad6000396000f3fe608060405234801561001057600080fd5b50600436106100365760003560e01c80632d7d71541461003b578063db62f49714610059575b600080fd5b610043610075565b6040516100509190610282565b60405180910390f35b610073600480360381019061006e91906101d3565b61007b565b005b60005481565b6100a060405180606001604052806021815260200161031f60219139600054836100aa565b8060008190555050565b6101448383836040516024016100c293929190610244565b6040516020818303038152906040527fca47c4eb000000000000000000000000000000000000000000000000000000007bffffffffffffffffffffffffffffffffffffffffffffffffffffffff19166020820180517bffffffffffffffffffffffffffffffffffffffffffffffffffffffff8381831617835250505050610149565b505050565b61016081610158610163610184565b63ffffffff16565b50565b60006a636f6e736f6c652e6c6f679050600080835160208501845afa505050565b61018f819050919050565b7f4e487b7100000000000000000000000000000000000000000000000000000000600052605160045260246000fd5b6000813590506101cd81610307565b92915050565b6000602082840312156101e557600080fd5b60006101f3848285016101be565b91505092915050565b60006102078261029d565b61021181856102a8565b93506102218185602086016102c3565b61022a816102f6565b840191505092915050565b61023e816102b9565b82525050565b6000606082019050818103600083015261025e81866101fc565b905061026d6020830185610235565b61027a6040830184610235565b949350505050565b60006020820190506102976000830184610235565b92915050565b600081519050919050565b600082825260208201905092915050565b6000819050919050565b60005b838110156102e15780820151818401526020810190506102c6565b838111156102f0576000848401525b50505050565b6000601f19601f8301169050919050565b610310816102b9565b811461031b57600080fd5b5056fe6368616e67696e6720666176206e756d6265722066726f6d20257320746f202573a2646970667358221220047ad9f12d542f3b9f40cc2aae6802680ae97d14f3e05cb1d27dda76000fbac964736f6c63430008000033",
  "linkReferences": {},
  "deployedLinkReferences": {}
}